:100000000C945E000C9486000C9486000C94860080
:100010000C9486000C9486000C9486000C944A0282
:100020000C9486000C9486000C9486000C94860038
:100030000C9486000C9486000C9486000C94860028
:100040000C945F030C9486000C942D030C9407030E
:100050000C9486000C9486000C9486000C94860008
:100060000C9486000C9486000000000024002700F9
:100070002A0000000000250028002B0004040404CE
:100080000404040402020202020203030303030342
:10009000010204081020408001020408102001021F
:1000A00004081020000000080002010000030407FB
:1000B00000000000000000000200A90311241FBE80
:1000C000CFEFD8E0DEBFCDBF11E0A0E0B1E0E4ECBF
:1000D000FFE002C005900D92AC33B107D9F722E0E2
:1000E000ACE3B1E001C01D92A335B207E1F710E027
:1000F000CEE5D0E004C02197FE010E949407CD35E3
:10010000D107C9F70E94E8030C94E0070C940000A3
:10011000CF92DF92EF92FF920F931F93CF93DF93D3
:100120006C017A018B01C0E0D0E0CE15DF0589F0CB
:10013000D8016D918D01D601ED91FC910190F08176
:10014000E02DC6010995892B11F47E0102C021968C
:10015000ECCFC701DF91CF911F910F91FF90EF90EE
:10016000DF90CF900895FC01918D828D981761F0FA
:10017000828DDF01A80FB11D5D968C91928D9F5FDE
:100180009F73928F90E008958FEF9FEF0895FC0189
:10019000918D828D981731F0828DE80FF11D858D3C
:1001A00090E008958FEF9FEF0895FC01918D228DCF
:1001B000892F90E0805C9F4F821B91098F73992754
:1001C00008958EE691E00E94D50021E0892B09F484
:1001D00020E0822F0895FC01848DDF01A80FB11D5E
:1001E000A35ABF4F2C91848D90E001968F7399276D
:1001F000848FA689B7892C93A089B1898C9180645A
:100200008C93938D848D981306C00288F389E02D1A
:1002100080818F7D80830895EF92FF920F931F93CB
:10022000CF93DF93EC0181E0888F9B8D8C8D9813A9
:1002300005C0E889F989808185FD24C0F62E0B8DE3
:1002400010E00F5F1F4F0F731127E02E8C8DE81207
:100250000CC00FB607FCFACFE889F989808185FFC9
:10026000F5CFCE010E94EB00F1CF8B8DFE01E80FA0
:10027000F11DE35AFF4FF0820B8FEA89FB898081E1
:10028000806207C0EE89FF896083E889F9898081EF
:100290008064808381E090E0DF91CF911F910F9186
:1002A000FF90EF900895CF93DF93EC01888D882322
:1002B000C9F0EA89FB89808185FD05C0A889B989D3
:1002C0008C9186FD0FC00FB607FCF5CF808185FFAE
:1002D000F2CFA889B9898C9185FFEDCFCE010E941C
:1002E000EB00E7CFDF91CF91089580E090E0892B7C
:1002F00029F00E94E10081110C94000008953FB79D
:10030000F8948091410190914201A0914301B091F4
:10031000440126B5A89B05C02F3F19F00196A11DE9
:10032000B11D3FBFBA2FA92F982F8827820F911D8B
:10033000A11DB11DBC01CD0142E0660F771F881FD2
:10034000991F4A95D1F708958F929F92AF92BF92CD
:10035000CF92DF92EF92FF926B017C010E947F01AE
:100360004B015C01C114D104E104F104F1F00E94DD
:100370007F01DC01CB0188199909AA09BB09883ED4
:100380009340A105B10570F321E0C21AD108E1083C
:10039000F10888EE880E83E0981EA11CB11CC114E0
:1003A000D104E104F10419F7DDCFFF90EF90DF9065
:1003B000CF90BF90AF909F908F9008952FB7F894F3
:1003C00060913D0170913E0180913F01909140010B
:1003D0002FBF08950E949A076115710579F0FB01FE
:1003E00001900020E9F73197AF01461B570BDC0164
:1003F000ED91FC910280F381E02D099480E090E082
:1004000008954F925F926F927F92EF92FF920F93B7
:100410001F93CF93DF93CDB7DEB7A1970FB6F894B4
:10042000DEBF0FBECDBF7C01FA01CB0119A2223085
:1004300008F42AE08E010F5D1F4F422E512C612CD3
:10044000712CBF01A30192010E949F07F901CA010B
:10045000015011096A3014F4605D01C0695CD80173
:100460006C93232B242B252B61F7B801C7010E9425
:10047000EC01A1960FB6F894DEBF0FBECDBFDF91A1
:10048000CF911F910F91FF90EF907F906F905F90B1
:100490004F9008951F920F920FB60F9211242F9331
:1004A0003F938F939F93AF93BF93EF93FF9380916D
:1004B0006A0190916B01A0916C01B0916D01892B43
:1004C0008A2B8B2B59F180916901E0916701F091A2
:1004D000680190818927808380916A0190916B01E6
:1004E000A0916C01B0916D01181619061A061B0631
:1004F0000CF080C080916A0190916B01A0916C0119
:10050000B0916D010197A109B10980936A0190939F
:100510006B01A0936C01B0936D016CC080910001E0
:10052000E8EBF0E0E4919FEF90930001E130B9F047
:1005300098F0E230C9F4909170009D7F9093700024
:1005400091E09093B0009091B100987F9460909367
:10055000B1001092B30008C010926E0005C09091D7
:100560006F009D7F90936F0090E0FC01EC55FF4F72
:100570002491FC01E057FF4F3491FC01E458FF4FF8
:10058000E491EE23B9F1222339F1233091F038F4CC
:100590002130A9F0223001F584B58F7D12C02730BB
:1005A00091F02830A1F02430B9F4809180008F7D43
:1005B00003C0809180008F77809380000DC084B548
:1005C0008F7784BD09C08091B0008F7703C0809180
:1005D000B0008F7D8093B000F0E0EE0FFF1FEE586B
:1005E000FF4FA591B4918FB7F894EC9130953E23CD
:1005F0003C938FBFFF91EF91BF91AF919F918F91EE
:100600003F912F910F900FBE0F901F9018951F9242
:100610000F920FB60F9211242F933F934F935F9336
:100620006F937F938F939F93AF93BF93EF93FF93BA
:100630008EE691E00E94EB00FF91EF91BF91AF91A8
:100640009F918F917F916F915F914F913F912F91EA
:100650000F900FBE0F901F9018951F920F920FB61C
:100660000F9211242F938F939F93EF93FF93E09119
:100670007E01F0917F018081E0918401F0918501FC
:1006800082FD12C09081809187018F5F8F732091CE
:100690008801821751F0E0918701F0E0E259FE4FA6
:1006A000958F8093870101C08081FF91EF919F9189
:1006B0008F912F910F900FBE0F901F9018951F9242
:1006C0000F920FB60F9211242F933F938F939F9306
:1006D000AF93BF9380913D0190913E01A0913F0166
:1006E000B091400130913C0123E0230F2D3720F4DD
:1006F0000196A11DB11D05C026E8230F0296A11D7C
:10070000B11D20933C0180933D0190933E01A09345
:100710003F01B09340018091410190914201A0912D
:100720004301B09144010196A11DB11D8093410187
:1007300090934201A0934301B0934401BF91AF91C4
:100740009F918F913F912F910F900FBE0F901F900F
:100750001895EEE6F1E01382128288EE93E0A0E0B5
:10076000B0E084839583A683B78389E091E0918389
:10077000808385EC90E09587848784EC90E0978770
:10078000868780EC90E0918B808B81EC90E0938B5E
:10079000828B82EC90E0958B848B86EC90E0978B3B
:1007A000868B118E128E138E148EEBE0F2E0168281
:1007B0001782108611861286138614861586168671
:1007C0001786108A118A128A138A148A158A089544
:1007D000789484B5826084BD84B5816084BD85B51C
:1007E000826085BD85B5816085BD80916E00816028
:1007F00080936E00109281008091810082608093CE
:1008000081008091810081608093810080918000CF
:100810008160809380008091B10084608093B100FA
:100820008091B00081608093B00080917A008460F4
:1008300080937A0080917A00826080937A00809120
:100840007A00816080937A0080917A00806880933A
:100850007A001092C10010924F0210925002109232
:1008600051021092520210920D0210920E0210923A
:100870000F021092100268EB7BE080E090E00E9493
:10088000A4018EE691E090934E0280934D02E09198
:100890007E01F0917F01D2E0D083E0917A01F09166
:1008A0007B011082E0917C01F0917D0180E18083E9
:1008B00010928601E0918201F0918301C6E0C0832D
:1008C000E0918001F0918101808180618083E091DD
:1008D0008001F0918101808188608083E0918001B6
:1008E000F0918101808180688083E0918001F091A6
:1008F000810180818F7D80830E94DE0160930D02E3
:1009000070930E0280930F029093100265E171E0E4
:1009100080914D0290914E020E94EC016AE070E0DD
:1009200080E090E00E94A40181E080932102E091A8
:100930007E01F0917F01D083E0917E01F0917F01F3
:100940001082E0917A01F0917B018FEF8083E0913A
:100950007C01F0917D01808310928601E0918201FB
:10096000F0918301C083E0918001F0918101808149
:1009700080618083E0918001F091810180818860B5
:100980008083E0918001F091810180818068808383
:10099000E0918001F091810180818F7D808380E2F0
:1009A00091EAA7E0B0E08093570190935801A0939B
:1009B0005901B0935A010AE910E0E6E82E2EE0E072
:1009C0003E2EC5E888248A94982C54010E94DE01AA
:1009D000672B682B692B41F40E94DE0162307105A0
:1009E0008105910508F40FC10E94DE016093630147
:1009F000709364018093650190936601C0905F01DC
:100A0000D0906001E0906101F09062016C157D056D
:100A10008E059F0540F460935F01709360018093A1
:100A2000610190936201C0905F01D0906001E090FD
:100A30006101F09062019B01AC012C193D094E0946
:100A40005F0969017A013AEFC316D104E104F104A8
:100A500008F4D9C060935F017093600180936101D5
:100A60009093620184EF91E0A0E0B0E080931902DE
:100A700090931A02A0931B02B0931C0210921D02C5
:100A800010921E0210921F021092200280911102F9
:100A900090911202A0911302B0911402809315025A
:100AA00090931602A0931702B09318020E94DE01E1
:100AB00060931102709312028093130290931402B8
:100AC0000E94DE0160930D0270930E0280930F026C
:100AD000909310020E94DE016B017C0167E271E0DD
:100AE00080914D0290914E020E94EC012AE041E07B
:100AF00050E060E070E080914D0290914E020E94C3
:100B000001026EE271E080914D0290914E020E94CE
:100B1000EC012AE0B701A60180914D0290914E02AE
:100B20000E94010260E371E080914D0290914E02BB
:100B30000E94EC018091110290911202A091130287
:100B4000B0911402B701A601481B590B6A0B7B0B2D
:100B50002AE080914D0290914E020E94010260E3D2
:100B600071E080914D0290914E020E94EC01409103
:100B7000110250911202609113027091140280913F
:100B8000150290911602A0911702B0911802481B0D
:100B9000590B6A0B7B0B2AE080914D0290914E021B
:100BA0000E94010262E371E080914D0290914E0239
:100BB0000E94EC010E94DE01AB01BC012AE08091A1
:100BC0004D0290914E020E940102E0904D02F09081
:100BD0004E0264E371E0C7010E94EC0164E271E03F
:100BE000C7010E94EC0165E070E080E090E00E94A7
:100BF000A4010E94DE01609311027093120280939F
:100C00001302909314020E947F016B017C014090BB
:100C10005B0150905C0160905D0170905E0177FE19
:100C200014C0E0916E01F0916F010190F081E02D10
:100C30006DE28EE691E0099544275527BA014419E3
:100C40005509660977092AE003C02AE0B301A20129
:100C50008EE691E00E94010264E271E08EE691E08E
:100C60000E94EC0140915B0150915C0160915D013B
:100C700070915E018091570190915801A0915901A6
:100C8000B0915A01481759076A077B070CF403C152
:100C90008091450190914601840F951F90934601E4
:100CA00080934501809100018A3021F4E8EBF0E067
:100CB000D49172C08F3F09F0BEC08AE080930001DA
:100CC000E8EBF0E0D491DF3F09F4B5C0D13001F199
:100CD000D23009F43FC0D1115FC014BC15BC84B53B
:100CE000826084BD85B5816085BDF1018491E82F66
:100CF000F0E0EE0FFF1FEE58FF4F85919491909317
:100D00004C0180934B01F801849180934A0146C0C5
:100D10001092800010928100809181008860809301
:100D2000810080918100816080938100F101849134
:100D3000E82FF0E0EE0FFF1FEE58FF4F85919491E2
:100D40009093490180934801F80184918093470171
:100D5000D1E024C01092B0001092B1008091B00098
:100D600082608093B0008091B10081608093B10077
:100D7000F1018491E82FF0E0EE0FFF1FEE58FF4FD6
:100D8000859194919093680180936701F801849113
:100D900080936901D2E002C0D7FD4DC0F801749084
:100DA000F1018491882399F090E0880F991FFC014C
:100DB000E859FF4FA591B491FC01EE58FF4F2591E2
:100DC00034918FB7F8949C9197299C938FBFDD2322
:100DD00009F490C0D23009F4A0C0D130D1F4809190
:100DE0008100887F83608093810089E698E19093F9
:100DF00089008093880080924D0190924E01A092CC
:100E00004F01B092500180916F00826080936F001B
:100E100012C089E6D23079F48093B30080926A01DF
:100E200090926B01A0926C01B0926D018091700064
:100E30008260809370008091550190915601480F17
:100E4000591F509356014093550160915B01709179
:100E50005C0180915D0190915E0120E231EA47E002
:100E600050E00E94C10720E231EA47E050E0261B33
:100E7000370B480B590B209357013093580140937F
:100E8000590150935A0110925B0110925C0110922B
:100E90005D0110925E010E947F016C157D058E053B
:100EA0009F0558F4C094D094E094F094DC01CB01F9
:100EB0008C0D9D1DAE1DBF1D06C0DC01CB018C1924
:100EC0009D09AE09BF09C0905B01D0905C01E09024
:100ED0005D01F0905E018C0D9D1DAE1DBF1D8093C8
:100EE0005B0190935C01A0935D01B0935E010E9451
:100EF00075016CCD85B5887F856085BDC7BD809245
:100F0000510190925201A0925301B09254018091EC
:100F10006E00826080936E008ECF8091B1008760FA
:100F20008093B10085E878CFEE0FFF1F0590F49114
:100F3000E02D099481E090E0F8940C94E007A1E2A0
:100F40001A2EAA1BBB1BFD010DC0AA1FBB1FEE1F43
:100F5000FF1FA217B307E407F50720F0A21BB30B8E
:100F6000E40BF50B661F771F881F991F1A9469F70A
:100F700060957095809590959B01AC01BD01CF0166
:100F80000895052E97FB1EF400940E94D80757FD84
:100F900007D00E949F0707FC03D04EF40C94D8079B
:100FA00050954095309521953F4F4F4F5F4F089595
:100FB00090958095709561957F4F8F4F9F4F0895C5
:040FC000F894FFCFD3
:100FC400FF01000000000000000C018800D500B300
:100FD40000C7005301564D4450565F317C315F5673
:100FE4004D4450560D0A00564D4450455F003A3268
:0C0FF4003A007C005F564D445045000060
:107800000C94343C0C94513C0C94513C0C94513CE1
:107810000C94513C0C94513C0C94513C0C94513CB4
:107820000C94513C0C94513C0C94513C0C94513CA4
:107830000C94513C0C94513C0C94513C0C94513C94
:107840000C94513C0C94513C0C94513C0C94513C84
:107850000C94513C0C94513C0C94513C0C94513C74
:107860000C94513C0C94513C11241FBECFEFD8E036
:10787000DEBFCDBF11E0A0E0B1E0ECE9FFE702C060
:1078800005900D92A230B107D9F712E0A2E0B1E065
:1078900001C01D92AD30B107E1F70E942D3D0C945F
:1078A000CC3F0C94003C982F959595959595959582
:1078B000905D8F708A307CF0282F295A8091C0000B
:1078C00085FFFCCF9093C6008091C00085FFFCCF60
:1078D0002093C6000895282F205DF0CF982F809127
:1078E000C00085FFFCCF9093C6000895EF92FF92F1
:1078F0000F931F93EE24FF2487018091C00087FD22
:1079000017C00894E11CF11C011D111D81E4E8164B
:1079100082E4F8068FE0080780E0180770F3E09132
:107920000401F091050109958091C00087FFE9CF1E
:107930008091C6001F910F91FF90EF9008950E94D3
:10794000763C982F8091C00085FFFCCF9093C600B5
:1079500091362CF490330CF09053892F089597555D
:10796000892F08951F930E949F3C182F0E949F3CCF
:107970001295107F810F1F9108951F93182F882350
:1079800021F00E94763C1150E1F71F9108951F935A
:10799000182F0E94763C803249F0809103018F5F5E
:1079A000809303018530C1F01F9108958091C0003C
:1079B00085FFFCCF84E18093C6008091C00085FFE5
:1079C000FCCF1093C6008091C00085FFFCCF80E102
:1079D0008093C6001F910895E0910401F091050184
:1079E00009951F9108950E94763C803241F0809164
:1079F00003018F5F80930301853081F008958091AA
:107A0000C00085FFFCCF84E18093C6008091C00058
:107A100085FFFCCF80E18093C6000895E0910401CA
:107A2000F09105010995089540E951E08823A1F0FE
:107A30002D9A28EE33E0FA013197F1F721503040CA
:107A4000D1F72D9828EE33E0FA013197F1F7215064
:107A50003040D1F7815061F708953F924F925F9285
:107A60006F927F928F929F92AF92BF92CF92DF924E
:107A7000EF92FF920F931F93CF93DF93000080E16B
:107A80008093C4001092C50088E18093C10086E015
:107A90008093C2005098589A259A81E00E94143D24
:107AA00024E1F22E9EE1E92E85E9D82E0FE0C02ECA
:107AB00010E1B12EAA24A394B1E49B2EA6E58A2E50
:107AC000F2E57F2EE0E26E2E79E4572E63E5462E36
:107AD00050E5352E0E94763C8033B1F18133B9F107
:107AE000803409F46FC0813409F476C0823409F41B
:107AF00085C0853409F488C0803531F1823521F1A3
:107B0000813511F1853509F485C0863509F48DC0BC
:107B1000843609F496C0843709F403C1853709F423
:107B200072C1863709F466C0809103018F5F80932C
:107B30000301853079F6E0910401F0910501099582
:107B40000E94763C803351F60E94F33CC3CF0E94E2
:107B5000763C803249F78091C00085FFFCCFF092DF
:107B6000C6008091C00085FFFCCF9092C600809136
:107B7000C00085FFFCCF8092C6008091C00085FFC9
:107B8000FCCF7092C6008091C00085FFFCCF609250
:107B9000C6008091C00085FFFCCF5092C600809146
:107BA000C00085FFFCCF4092C6008091C00085FFD9
:107BB000FCCF3092C6008091C00085FFFCCFB09210
:107BC000C60088CF0E94763C863808F4BDCF0E945C
:107BD000763C0E94F33C7ECF0E94763C803809F4CC
:107BE0009CC0813809F40BC1823809F43CC1883942
:107BF00009F48FC080E00E94C73C6CCF84E10E94F2
:107C0000BD3C0E94F33C66CF85E00E94BD3C0E94D3
:107C1000F33C60CF0E94763C809306010E94763C44
:107C2000809307010E94F33C55CF0E94763C80333D
:107C300009F41DC183E00E94BD3C80E00E94C73C66
:107C400049CF0E94763C809309020E94763C809343
:107C5000080280910C028E7F80930C020E94763C79
:107C6000853409F415C18091080290910902892B8D
:107C700089F000E010E00E94763CF801E85FFE4FDA
:107C800080830F5F1F4F80910802909109020817AF
:107C9000190788F30E94763C803209F045CF809125
:107CA0000C0280FF01C16091060170910701660F0F
:107CB000771F7093070160930601A0910802B091AD
:107CC00009021097C9F0E8E0F1E09B01AD014E0F09
:107CD0005F1FF999FECF32BD21BD819180BDFA9A17
:107CE000F99A2F5F3F4FE417F50799F76A0F7B1F4B
:107CF00070930701609306018091C00085FFFCCF5F
:107D0000F092C6008091C00085FFFCCFB092C60003
:107D1000E1CE83E00E94C73CDDCE82E00E94C73CFA
:107D2000D9CE0E94763C809309020E94763C8093D3
:107D300008028091060190910701880F991F909386
:107D40000701809306010E94763C853409F4A6C0A1
:107D500080910C028E7F80930C020E94763C8032D0
:107D600009F0B8CE8091C00085FFFCCFF092C6002C
:107D7000609108027091090261157105B9F140E046
:107D800050E080910C02A82FA170B82FB27011C0E2
:107D9000BB2309F45CC0E0910601F0910701319624
:107DA000F0930701E09306014F5F5F4F46175707B7
:107DB000E8F4AA2369F3F999FECF209106013091E6
:107DC000070132BD21BDF89A90B58091C00085FFB2
:107DD000FCCF9093C6002F5F3F4F30930701209355
:107DE00006014F5F5F4F4617570718F38091C00099
:107DF00085FDE5CE8091C00085FFF8CFE0CE81E023
:107E00000E94C73C67CE0E94763C803209F08CCE3F
:107E10008091C00085FFFCCFF092C6008091C00029
:107E200085FFFCCFE092C6008091C00085FFFCCFAB
:107E3000D092C6008091C00085FFFCCFC092C600E2
:107E40008091C00085FFFCCFB092C60043CEE09188
:107E50000601F091070194918091C00085FFFCCF4D
:107E60009093C6009CCF80E10E94C73C33CE0E9415
:107E7000763C0E94763C182F0E94763C112309F430
:107E800083C0113009F484C08FE00E94C73C22CE29
:107E900080910C02816080930C02E5CE80910C02EF
:107EA000816080930C0259CF809107018823880F4D
:107EB000880B8A2180930B02809106019091070123
:107EC000880F991F90930701809306018091080203
:107ED00080FF09C080910802909109020196909359
:107EE000090280930802F894F999FECF1127E091D6
:107EF0000601F0910701C8E0D1E08091080290915D
:107F00000902103091F40091570001700130D9F34B
:107F100003E000935700E89500915700017001308D
:107F2000D9F301E100935700E89509901990009169
:107F3000570001700130D9F301E000935700E89534
:107F40001395103498F011270091570001700130FB
:107F5000D9F305E000935700E895009157000170B0
:107F60000130D9F301E100935700E895329602976A
:107F700009F0C7CF103011F00296E5CF112480919F
:107F8000C00085FFB9CEBCCE8EE10E94C73CA2CD19
:0C7F900085E90E94C73C9ECDF894FFCF0D
:027F9C00800063
:040000030000780081
:00000001FF