:100000000C945E000C9486000C9486000C94860080
:100010000C9486000C9486000C9486000C94F205D7
:100020000C9486000C9486000C9486000C94860038
:100030000C9486000C9486000C9486000C94860028
:100040000C94A6060C9486000C9474060C944E0630
:100050000C9486000C9486000C9486000C94860008
:100060000C9486000C948600000000080002010039
:100070000003040700000000000000000200000070
:1000800000250028002B0000000000240027002A83
:100090000004040404040404040202020202020331
:1000A000030303030301020408102040800102043B
:1000B00008102001020408102000FA0811241FBEB5
:1000C000CFEFD8E0DEBFCDBF22E0A0E5B1E001C0B8
:1000D0001D92A133B207E1F711E0A0E0B1E0E2E147
:1000E000F7E102C005900D92A035B107D9F710E0F5
:1000F000CEE5D0E004C02197FE010E942709CD354E
:10010000D107C9F70E94F0060C94870B0C940000ED
:1001100090E0FC01EB55FF4F2491FC01EF56FF4F9F
:100120008491882399F090E0880F991FFC01E9578A
:10013000FF4FA591B491FC01E358FF4F8591949135
:100140008FB7F894EC91E22BEC938FBF08953F9218
:100150004F925F926F927F928F929F92AF92BF92D7
:10016000CF92DF92EF92FF920F931F93CF93DF9383
:1001700000D000D0CDB7DEB7209101012A3021F0A8
:100180002F3F09F02BC204C0ECE7F0E0349076C0BA
:100190002AE020930101ECE7F0E0E491EF3F09F45D
:1001A0001DC2E13011F1E23009F443C0E11165C034
:1001B00014BC15BC24B5226024BD25B5216025BD25
:1001C000EBE9F0E0E491F0E0EE0FFF1FE358FF4FA2
:1001D000259134913093870120938601EFEAF0E076
:1001E000E491E0938501312C4BC010928000109275
:1001F000810020918100286020938100209181005E
:10020000216020938100EBE9F0E0E491F0E0EE0F53
:10021000FF1FE358FF4F25913491309384012093C1
:100220008301EFEAF0E0E491E09382013324339418
:1002300027C01092B0001092B1002091B00022604F
:100240002093B0002091B10021602093B100EBE930
:10025000F0E0E491F0E0EE0FFF1FE358FF4F25912F
:1002600034913093810120938001EFEAF0E0E49132
:10027000E0937F01B2E03B2E03C03E2E37FCAEC1BF
:100280002A013B018C018AE00E9488004801A12CD0
:10029000B12C832D8D7F09F0BBC060E072E18AE74D
:1002A00090E0A50194010E94240B29833A834B839B
:1002B0005C8369017A0121E0C21AD108E108F108E2
:1002C0008FEFC816D104E104F10409F008F44CC022
:1002D00060E472E48FE090E0A50194010E94240B99
:1002E00069017A01E1E0CE1AD108E108F108F2E0F3
:1002F0003F1220C02FEFC216D104E104F10409F02F
:1003000008F46AC160E970ED83E090E0A501940112
:100310000E94240B69017A0181E0C81AD108E10822
:10032000F108EFEFCE16D104E104F10409F0D0F5A5
:1003300083E067C0FFEFCF16D104E104F104B1F010
:10034000A8F068E478EE81E090E0A50194010E94B5
:10035000240B69017A0181E0C81AD108E108F1088B
:10036000332009F4DFC02FC181E001C082E03320D7
:10037000A1F047C089819A81AB81BC812AE0B59503
:10038000A795979587952A95D1F76C017D0121E076
:10039000C21AD108E108F10885E095B5987F892B4C
:1003A00085BD6FC068E478EE81E090E0A50194011E
:1003B0000E94240B69017A01F1E0CF1AD108E1080B
:1003C000F1082FEFC216D104E104F10409F008F49A
:1003D000A7C064E274EF80E090E0A50194010E9460
:1003E000240B69017A01E1E0CE1AD108E108F10895
:1003F000FFEFCF16D104E104F10411F008F0B4C00E
:1004000085E09091B100987F892B8093B10039C02D
:1004100060E072E18AE790E0A50194010E94240B5C
:1004200069017A0181E0C81AD108E108F108C11414
:10043000D104E1E0EE06F10488F068E478EE81E0B2
:1004400090E0A50194010E94240B69017A01F1E07A
:10045000CF1AD108E108F10893E001C091E021E052
:1004600032120FC080918100887F892B8093810098
:10047000411451046104710449F42FEF3FEFA901C5
:100480002DC0411451046104710471F0D801AA0F08
:10049000BB1FA30192010E94430B28EE33E040E012
:1004A00050E00E94560B03C02FEF3FEFA90181E0FF
:1004B0003816A1F0E2E03E1619F131108FC0C7BC2A
:1004C00020939001309391014093920150939301B6
:1004D00080916E00826080936E0080C0D09289000F
:1004E000C092880020938C0130938D0140938E013F
:1004F00050938F0180916F00826080936F006EC077
:10050000C092B300209388013093890140938A01FF
:1005100050938B01809170008260809370005EC068
:1005200084E06FCFFFEFCF16D104E104F104D1F0E6
:10053000C8F062E17AE780E090E0A50194010E94B2
:10054000240B69017A0181E0C81AD108E108F10899
:10055000EFEFCE16D104E104F10411F008F00ACF58
:1005600084E01BCF83E019CF62E17AE780E090E07E
:10057000A50194010E94240B69017A0181E0C81A47
:10058000D108E108F108EFEFCE16D104E104F1043F
:10059000C1F0B8F089819A81AB81BC814AE0B59500
:1005A000A795979587954A95D1F76C017D0121E034
:1005B000C21AD108E108F108332009F4EDCE87E032
:1005C00020CF86E0D4CEFFEFCF16D104E104F104B2
:1005D00009F050F684E0CBCE82E013CF0F900F905D
:1005E0000F900F90DF91CF911F910F91FF90EF909F
:1005F000DF90CF90BF90AF909F908F907F906F9043
:100600005F904F903F900895CF92DF92EF92FF92CC
:100610000F931F93CF93DF936C017A018B01C0E09E
:10062000D0E0CE15DF0589F0D8016D918D01D6019E
:10063000ED91FC910190F081E02DC6010995892B87
:1006400011F47E0102C02196ECCFC701DF91CF915A
:100650001F910F91FF90EF90DF90CF900895FC01D4
:10066000918D828D981761F0828DDF01A80FB11DE9
:100670005D968C91928D9F5F9F73928F90E008950D
:100680008FEF9FEF0895FC01918D828D981731F0C7
:10069000828DE80FF11D858D90E008958FEF9FEF1B
:1006A0000895FC01918D228D892F90E0805C9F4FF1
:1006B000821B91098F739927089584E991E00E9424
:1006C000510321E0892B09F420E0822F0895FC01D9
:1006D000848DDF01A80FB11DA35ABF4F2C91848DCB
:1006E00090E001968F739927848FA689B7892C9300
:1006F000A089B1898C9180648C93938D848D98139B
:1007000006C00288F389E02D80818F7D8083089563
:10071000EF92FF920F931F93CF93DF93EC0181E051
:10072000888F9B8D8C8D981305C0E889F98980810D
:1007300085FD24C0F62E0B8D10E00F5F1F4F0F7349
:100740001127E02E8C8DE8120CC00FB607FCFACFF3
:10075000E889F989808185FFF5CFCE010E94670382
:10076000F1CF8B8DFE01E80FF11DE35AFF4FF082B0
:100770000B8FEA89FB898081806207C0EE89FF893F
:100780006083E889F98980818064808381E090E0DA
:10079000DF91CF911F910F91FF90EF900895CF932C
:1007A000DF93EC01888D8823C9F0EA89FB89808179
:1007B00085FD05C0A889B9898C9186FD0FC00FB64B
:1007C00007FCF5CF808185FFF2CFA889B9898C918C
:1007D00085FFEDCFCE010E946703E7CFDF91CF9178
:1007E000089580E090E0892B29F00E945D0381113B
:1007F0000C940000089590E0FC01E859FF4F3491FB
:10080000FC01EB55FF4F2491FC01EF56FF4FE491A3
:10081000EE2309F43BC0332339F1333091F038F43F
:100820003130A9F0323001F584B58F7D12C03730F8
:1008300091F03830A1F03430B9F4809180008F7D90
:1008400003C0809180008F77809380000DC084B5B5
:100850008F7784BD09C08091B0008F7703C08091ED
:10086000B0008F7D8093B000F0E0EE0FFF1FE358E3
:10087000FF4FA591B4918FB7F894EC91611103C02B
:1008800020952E2301C02E2B2C938FBF089590917D
:100890000101981324C0ECE7F0E0E4919FEF9093FE
:1008A0000101E130B9F098F0E230C9F490917000A4
:1008B0009D7F9093700091E09093B0009091B10073
:1008C000987F94609093B1001092B30008C010928A
:1008D0006E0005C090916F009D7F90936F0060E067
:1008E0000C94FB033FB7F8948091690190916A01E1
:1008F000A0916B01B0916C0126B5A89B05C02F3F5C
:1009000019F00196A11DB11D3FBFBA2FA92F982F35
:100910008827820F911DA11DB11DBC01CD0142E0B0
:10092000660F771F881F991F4A95D1F708958F92F8
:100930009F92AF92BF92CF92DF92EF92FF920E946E
:1009400072044B015C018EE1C82ED12CE12CF12CFC
:100950000E947204DC01CB0188199909AA09BB091C
:10096000883E9340A105B10558F021E0C21AD10894
:10097000E108F10888EE880E83E0981EA11CB11CE6
:10098000C114D104E104F10419F7FF90EF90DF9056
:10099000CF90BF90AF909F908F900895009769F08F
:1009A000FC0101900020E9F73197AF01481B590B7A
:1009B000BC0184E991E00C94040380E090E0089588
:1009C0002F923F924F925F926F927F928F929F925F
:1009D000AF92BF92CF92DF92EF92FF920F931F934D
:1009E000CF93DF9300D000D000D0CDB7DEB78823FF
:1009F00039F0C12CD12C20E8E22E2FE3F22E07C0D3
:100A00009DECC92E9CECD92EED2C9DE3F92EA7016F
:100A1000960160E070E080E89FE30E942D09698301
:100A20007A838B839C8384E391E00E94CE042AE145
:100A300031E03E832D8386E0282E81E0382E00E5CC
:100A400011E0F801208131814281538169817A81ED
:100A50008B819C810E94560A4B015C01ED81FE81D5
:100A600080813296FE83ED838E3008F08E50282FE1
:100A7000277080910001F0E48F9FC0011124822B28
:100A800080937C0080917A00806480937A008091CA
:100A90007A0086FDFCCF6091780080917900F101A9
:100AA00041905190619071901F0170E0782B072E5A
:100AB000000C880B990B0E94A10920E030E040E86F
:100AC0005AE30E94560A2DEC3CEC4CE85FE30E948E
:100AD000560AA30192010E94560AA70196010E949C
:100AE000560A9B01AC01C501B4010E942E094B01BD
:100AF0005C01F80161937193819391938F0120E0E0
:100B000030E040E450E40E949A0918164CF024E0CA
:100B100030E030937601209375018CE391E038C08A
:100B200023E333E343E550E4C501B4010E949A098D
:100B300018164CF083E090E0909376018093750155
:100B400080E491E025C020E030E040E650E4C501BB
:100B5000B4010E949A0918164CF0E2E0F0E0F0931C
:100B60007601E093750184E491E012C029E23CE54E
:100B700047E850E4C501B4010E94510A87FD0AC04C
:100B800021E030E0309376012093750188E491E014
:100B90000E94CE048D819E818452914009F051CFF4
:100BA00042E050E06CE471E084E991E026960FB6F3
:100BB000F894DEBF0FBECDBFDF91CF911F910F9193
:100BC000FF90EF90DF90CF90BF90AF909F908F906D
:100BD0007F906F905F904F903F902F900C94040304
:100BE0000E94C30A1F920F920FB60F9211242F93E7
:100BF0003F934F935F936F937F938F939F93AF93A5
:100C0000BF93EF93FF938091880190918901A09108
:100C10008A01B0918B01892B8A2B8B2B51F180910A
:100C20007F01E0918001F09181019081892780838B
:100C30008091880190918901A0918A01B0918B01E6
:100C4000181619061A061B06C4F4809188019091A3
:100C50008901A0918A01B0918B010197A109B10985
:100C60008093880190938901A0938A01B0938B01AE
:100C700004C0809101010E944704FF91EF91BF9150
:100C8000AF919F918F917F916F915F914F913F9124
:100C90002F910F900FBE0F901F9018951F920F92DB
:100CA0000FB60F9211242F933F934F935F936F933F
:100CB0007F938F939F93AF93BF93EF93FF9384E9B9
:100CC00091E00E946703FF91EF91BF91AF919F91D7
:100CD0008F917F916F915F914F913F912F910F90E5
:100CE0000FBE0F901F9018951F920F920FB60F9284
:100CF00011242F938F939F93EF93FF93E091A4017F
:100D0000F091A5018081E091AA01F091AB0182FDF3
:100D100012C090818091AD018F5F8F732091AE01E1
:100D2000821751F0E091AD01F0E0EC56FE4F958F47
:100D30008093AD0101C08081FF91EF919F918F91D0
:100D40002F910F900FBE0F901F9018951F920F922A
:100D50000FB60F9211242F933F938F939F93AF93CE
:100D6000BF938091650190916601A0916701B09158
:100D700068013091640123E0230F2D3720F40196A0
:100D8000A11DB11D05C026E8230F0296A11DB11DAE
:100D9000209364018093650190936601A09367019D
:100DA000B09368018091690190916A01A0916B01F3
:100DB000B0916C010196A11DB11D809369019093C2
:100DC0006A01A0936B01B0936C01BF91AF919F91A9
:100DD0008F913F912F910F900FBE0F901F901895FC
:100DE000CF93DF9300D000D0CDB7DEB7789484B531
:100DF000826084BD84B5816084BD85B5826085BD17
:100E000085B5816085BD80916E00816080936E00A4
:100E10001092810080918100826080938100809196
:100E20008100816080938100809180008160809347
:100E300080008091B10084608093B1008091B00007
:100E400081608093B00080917A00846080937A0002
:100E500080917A00826080937A0080917A0081602C
:100E600080937A0080917A00806880937A00109253
:100E7000C100E12CF12C90E4892E96E0992EA12C52
:100E8000B12C0E94160BA50194010E94240BDC01D9
:100E9000CB0180579E4FAF4FBF4F6701C80ED91E81
:100EA00044E150E060E070E0C6010E94A7000E94AB
:100EB000970444E150E060E070E0C6010E94A700A2
:100EC0000E94970444E150E060E070E0C6010E9497
:100ED000A7000E94970424E6E20EF11C30E9E31615
:100EE00031E0F30671F6E091A401F091A50182E0F2
:100EF0008083E091A001F091A1011082E091A20114
:100F0000F091A30180E180831092AC01E091A801EF
:100F1000F091A90186E08083E091A601F091A701FC
:100F2000808180618083E091A601F091A70180819A
:100F300088608083E091A601F091A701808180689C
:100F40008083E091A601F091A70180818F7D80834D
:100F500083E08093000181E00E94E0048DE00E9424
:100F6000880080E197E2A0E0B0E080937701909361
:100F70007801A0937901B0937A018CE0482E512C2E
:100F8000612C712C0BE811E00E9472044B015C0192
:100F900040917B0150917C0160917D0170917E01B7
:100FA0008091770190917801A0917901B0917A01B7
:100FB000481759076A077B070CF4EAC080E00E94D3
:100FC000E004C0907B01D0907C01E0907D01F09026
:100FD0007E0120916D0130916E0140916F01509121
:100FE000700129833A834B835C83283A314641055B
:100FF000510514F461E001C060E08DE00E94FB0344
:1010000069817A818B819C816C0D7D1D8E1D9F1D58
:101010006034A2E47A07AFE08A07910534F020E457
:1010200032E44FE050E00E94240B60936D01709316
:101030006E0180936F019093700180917501909182
:1010400076019C01235031092230310518F081309E
:10105000910539F58091710190917201A091730110
:10106000B09174018834E8EE9E07E1E0AE07B10567
:101070009CF08039F0ED9F07F3E0AF07B1053CF439
:10108000C701B6012DE030E040E050E031C0803BC8
:101090009147AB40B1053CF4C701B601A3019201F1
:1010A00027C0029721F08AE00E9447042AC080915D
:1010B000710190917201A0917301B0917401883413
:1010C00038EE930731E0A307B1053CF4C701B60140
:1010D0002AE030E040E050E00BC08039904DA34062
:1010E000B1050CF7C701B6012FE030E040E050E059
:1010F0000E94240BDA01C90140E050E0BA010E94CD
:10110000A7008091710190917201A0917301B0913B
:101110007401BC01CD016C0D7D1D8E1D9F1D6038BD
:1011200056E9750758E98507910534F020E836E956
:1011300048E950E00E94240B6093710170937201A2
:10114000809373019093740120917701309178011D
:101150004091790150917A01C701B6010E94240B98
:1011600020E137E240E050E0261B370B480B590BDB
:1011700020937701309378014093790150937A015D
:1011800010927B0110927C0110927D0110927E01E1
:10119000C8010197F1F70E947204681579058A0564
:1011A0009B0558F480949094A094B094DC01CB01FA
:1011B000880D991DAA1DBB1D06C0DC01CB01881935
:1011C0009909AA09BB0980907B0190907C01A090AD
:1011D0007D01B0907E01880D991DAA1DBB1D8093D5
:1011E0007B0190937C01A0937D01B0937E010E94CE
:1011F000F103CACEE4E9F1E01382128288EE93E0B3
:10120000A0E0B0E084839583A683B78388E291E071
:101210009183808385EC90E09587848784EC90E0CF
:101220009787868780EC90E0918B808B81EC90E0B3
:10123000938B828B82EC90E0958B848B86EC90E094
:10124000978B868B118E128E138E148E0895EE0F4F
:10125000FF1F0590F491E02D09945058BB27AA2751
:101260000E9445090C94170A0E94090A38F00E944E
:10127000100A20F039F49F3F19F426F40C94060A62
:101280000EF4E095E7FB0C94000AE92F0E94280A6F
:1012900058F3BA17620773078407950720F079F4AB
:1012A000A6F50C944A0A0EF4E0950B2EBA2FA02D49
:1012B0000B01B90190010C01CA01A0011124FF2703
:1012C000591B99F0593F50F4503E68F11A16F040FE
:1012D000A22F232F342F4427585FF3CF46953795FD
:1012E0002795A795F0405395C9F77EF41F16BA0BC2
:1012F000620B730B840BBAF09150A1F0FF0FBB1F70
:10130000661F771F881FC2F70EC0BA0F621F731FB8
:10131000841F48F4879577956795B795F7959E3F15
:1013200008F0B0CF9395880F08F09927EE0F9795A6
:10133000879508950E94DC0908F481E00895E894F7
:1013400009C097FB3EF490958095709561957F4F0D
:101350008F4F9F4F9923A9F0F92F96E9BB279395BB
:10136000F695879577956795B795F111F8CFFAF4CB
:10137000BB0F11F460FF1BC06F5F7F4F8F4F9F4FFC
:1013800016C0882311F096E911C0772321F09EE85A
:10139000872F762F05C0662371F096E8862F70E0C0
:1013A00060E02AF09A95660F771F881FDAF7880F9A
:1013B0009695879597F90895990F0008550FAA0BF0
:1013C000E0E8FEEF16161706E807F907C0F0121658
:1013D0001306E407F50798F0621B730B840B950B5B
:1013E00039F40A2661F0232B242B252B21F40895B0
:1013F0000A2609F4A140A6958FEF811D811D08954D
:1014000097F99F6780E870E060E008959FEF80ECB7
:10141000089500240A94161617061806090608955A
:1014200000240A9412161306140605060895092EC0
:101430000394000C11F4882352F0BB0F40F4BF2B2F
:1014400011F460FF04C06F5F7F4F8F4F9F4F08956F
:1014500057FD9058440F551F59F05F3F71F0479565
:10146000880F97FB991F61F09F3F79F0879508954A
:10147000121613061406551FF2CF4695F1DF08C069
:10148000161617061806991FF1CF86957105610586
:1014900008940895E894BB2766277727CB0197F92E
:1014A00008950E94DC0908F48FEF08950E94690AEC
:1014B0000C94170A0E94090A38F00E94100A20F0C2
:1014C000952311F00C94000A0C94060A11240C9434
:1014D0004B0A0E94280A70F3959FC1F3950F50E0C4
:1014E000551F629FF001729FBB27F00DB11D639FD6
:1014F000AA27F00DB11DAA1F649F6627B00DA11D7C
:10150000661F829F2227B00DA11D621F739FB00D21
:10151000A11D621F839FA00D611D221F749F332791
:10152000A00D611D231F849F600D211D822F762F2A
:101530006A2F11249F5750409AF0F1F088234AF007
:10154000EE0FFF1FBB1F661F771F881F9150504073
:10155000A9F79E3F510580F00C94000A0C944B0AA9
:101560005F3FE4F3983ED4F3869577956795B795FA
:10157000F795E7959F5FC1F7FE2B880F911D969514
:10158000879597F9089581E090E0F8940C94870B83
:101590008F929F92AF92BF92CF92DF92EF92FF9283
:1015A000CF93DF93EC01688179818A819B816115FA
:1015B00071058105910521F464E279ED8BE597E0F1
:1015C0002DE133EF41E050E00E94240B49015A0124
:1015D0009B01AC01A7EAB1E40E94430B6B017C01C3
:1015E000ACEEB4EFA50194010E94510BDC01CB01DC
:1015F0008C0D9D1DAE1DBF1DB7FF03C00197A10936
:10160000B04888839983AA83BB83BC01CD019F77AF
:10161000DF91CF91FF90EF90DF90CF90BF90AF9090
:101620009F908F9008950E94C80A089582E091E0EB
:101630000E94C80A08956093020170930301809389
:101640000401909305010895052E97FB1EF4009464
:101650000E943B0B57FD07D00E94560B07FC03D09E
:101660004EF40C943B0B50954095309521953F4F8F
:101670004F4F5F4F089590958095709561957F4F7E
:101680008F4F9F4F08950E94780BA59F900DB49F98
:10169000900DA49F800D911D11240895B7FF0C9407
:1016A000430B0E94430B821B930B0895A1E21A2E59
:1016B000AA1BBB1BFD010DC0AA1FBB1FEE1FFF1FF6
:1016C000A217B307E407F50720F0A21BB30BE40B46
:1016D000F50B661F771F881F991F1A9469F760958D
:1016E0007095809590959B01AC01BD01CF01089547
:1016F000A29FB001B39FC001A39F700D811D112453
:10170000911DB29F700D811D1124911D0895F894B3
:02171000FFCF09
:1017120001FF01000000BE9FBB41C976BA4177BEFE
:10172200B9417B14B941F0A7B841000001000200A1
:1017320003000400000000008803040351032F0388
:101742004303CF035643656C6C7320002041200095
:101752002042200020432000204420000D0A0000E7
:107800000C94343C0C94513C0C94513C0C94513CE1
:107810000C94513C0C94513C0C94513C0C94513CB4
:107820000C94513C0C94513C0C94513C0C94513CA4
:107830000C94513C0C94513C0C94513C0C94513C94
:107840000C94513C0C94513C0C94513C0C94513C84
:107850000C94513C0C94513C0C94513C0C94513C74
:107860000C94513C0C94513C11241FBECFEFD8E036
:10787000DEBFCDBF11E0A0E0B1E0ECE9FFE702C060
:1078800005900D92A230B107D9F712E0A2E0B1E065
:1078900001C01D92AD30B107E1F70E942D3D0C945F
:1078A000CC3F0C94003C982F959595959595959582
:1078B000905D8F708A307CF0282F295A8091C0000B
:1078C00085FFFCCF9093C6008091C00085FFFCCF60
:1078D0002093C6000895282F205DF0CF982F809127
:1078E000C00085FFFCCF9093C6000895EF92FF92F1
:1078F0000F931F93EE24FF2487018091C00087FD22
:1079000017C00894E11CF11C011D111D81E4E8164B
:1079100082E4F8068FE0080780E0180770F3E09132
:107920000401F091050109958091C00087FFE9CF1E
:107930008091C6001F910F91FF90EF9008950E94D3
:10794000763C982F8091C00085FFFCCF9093C600B5
:1079500091362CF490330CF09053892F089597555D
:10796000892F08951F930E949F3C182F0E949F3CCF
:107970001295107F810F1F9108951F93182F882350
:1079800021F00E94763C1150E1F71F9108951F935A
:10799000182F0E94763C803249F0809103018F5F5E
:1079A000809303018530C1F01F9108958091C0003C
:1079B00085FFFCCF84E18093C6008091C00085FFE5
:1079C000FCCF1093C6008091C00085FFFCCF80E102
:1079D0008093C6001F910895E0910401F091050184
:1079E00009951F9108950E94763C803241F0809164
:1079F00003018F5F80930301853081F008958091AA
:107A0000C00085FFFCCF84E18093C6008091C00058
:107A100085FFFCCF80E18093C6000895E0910401CA
:107A2000F09105010995089540E951E08823A1F0FE
:107A30002D9A28EE33E0FA013197F1F721503040CA
:107A4000D1F72D9828EE33E0FA013197F1F7215064
:107A50003040D1F7815061F708953F924F925F9285
:107A60006F927F928F929F92AF92BF92CF92DF924E
:107A7000EF92FF920F931F93CF93DF93000080E16B
:107A80008093C4001092C50088E18093C10086E015
:107A90008093C2005098589A259A81E00E94143D24
:107AA00024E1F22E9EE1E92E85E9D82E0FE0C02ECA
:107AB00010E1B12EAA24A394B1E49B2EA6E58A2E50
:107AC000F2E57F2EE0E26E2E79E4572E63E5462E36
:107AD00050E5352E0E94763C8033B1F18133B9F107
:107AE000803409F46FC0813409F476C0823409F41B
:107AF00085C0853409F488C0803531F1823521F1A3
:107B0000813511F1853509F485C0863509F48DC0BC
:107B1000843609F496C0843709F403C1853709F423
:107B200072C1863709F466C0809103018F5F80932C
:107B30000301853079F6E0910401F0910501099582
:107B40000E94763C803351F60E94F33CC3CF0E94E2
:107B5000763C803249F78091C00085FFFCCFF092DF
:107B6000C6008091C00085FFFCCF9092C600809136
:107B7000C00085FFFCCF8092C6008091C00085FFC9
:107B8000FCCF7092C6008091C00085FFFCCF609250
:107B9000C6008091C00085FFFCCF5092C600809146
:107BA000C00085FFFCCF4092C6008091C00085FFD9
:107BB000FCCF3092C6008091C00085FFFCCFB09210
:107BC000C60088CF0E94763C863808F4BDCF0E945C
:107BD000763C0E94F33C7ECF0E94763C803809F4CC
:107BE0009CC0813809F40BC1823809F43CC1883942
:107BF00009F48FC080E00E94C73C6CCF84E10E94F2
:107C0000BD3C0E94F33C66CF85E00E94BD3C0E94D3
:107C1000F33C60CF0E94763C809306010E94763C44
:107C2000809307010E94F33C55CF0E94763C80333D
:107C300009F41DC183E00E94BD3C80E00E94C73C66
:107C400049CF0E94763C809309020E94763C809343
:107C5000080280910C028E7F80930C020E94763C79
:107C6000853409F415C18091080290910902892B8D
:107C700089F000E010E00E94763CF801E85FFE4FDA
:107C800080830F5F1F4F80910802909109020817AF
:107C9000190788F30E94763C803209F045CF809125
:107CA0000C0280FF01C16091060170910701660F0F
:107CB000771F7093070160930601A0910802B091AD
:107CC00009021097C9F0E8E0F1E09B01AD014E0F09
:107CD0005F1FF999FECF32BD21BD819180BDFA9A17
:107CE000F99A2F5F3F4FE417F50799F76A0F7B1F4B
:107CF00070930701609306018091C00085FFFCCF5F
:107D0000F092C6008091C00085FFFCCFB092C60003
:107D1000E1CE83E00E94C73CDDCE82E00E94C73CFA
:107D2000D9CE0E94763C809309020E94763C8093D3
:107D300008028091060190910701880F991F909386
:107D40000701809306010E94763C853409F4A6C0A1
:107D500080910C028E7F80930C020E94763C8032D0
:107D600009F0B8CE8091C00085FFFCCFF092C6002C
:107D7000609108027091090261157105B9F140E046
:107D800050E080910C02A82FA170B82FB27011C0E2
:107D9000BB2309F45CC0E0910601F0910701319624
:107DA000F0930701E09306014F5F5F4F46175707B7
:107DB000E8F4AA2369F3F999FECF209106013091E6
:107DC000070132BD21BDF89A90B58091C00085FFB2
:107DD000FCCF9093C6002F5F3F4F30930701209355
:107DE00006014F5F5F4F4617570718F38091C00099
:107DF00085FDE5CE8091C00085FFF8CFE0CE81E023
:107E00000E94C73C67CE0E94763C803209F08CCE3F
:107E10008091C00085FFFCCFF092C6008091C00029
:107E200085FFFCCFE092C6008091C00085FFFCCFAB
:107E3000D092C6008091C00085FFFCCFC092C600E2
:107E40008091C00085FFFCCFB092C60043CEE09188
:107E50000601F091070194918091C00085FFFCCF4D
:107E60009093C6009CCF80E10E94C73C33CE0E9415
:107E7000763C0E94763C182F0E94763C112309F430
:107E800083C0113009F484C08FE00E94C73C22CE29
:107E900080910C02816080930C02E5CE80910C02EF
:107EA000816080930C0259CF809107018823880F4D
:107EB000880B8A2180930B02809106019091070123
:107EC000880F991F90930701809306018091080203
:107ED00080FF09C080910802909109020196909359
:107EE000090280930802F894F999FECF1127E091D6
:107EF0000601F0910701C8E0D1E08091080290915D
:107F00000902103091F40091570001700130D9F34B
:107F100003E000935700E89500915700017001308D
:107F2000D9F301E100935700E89509901990009169
:107F3000570001700130D9F301E000935700E89534
:107F40001395103498F011270091570001700130FB
:107F5000D9F305E000935700E895009157000170B0
:107F60000130D9F301E100935700E895329602976A
:107F700009F0C7CF103011F00296E5CF112480919F
:107F8000C00085FFB9CEBCCE8EE10E94C73CA2CD19
:0C7F900085E90E94C73C9ECDF894FFCF0D
:027F9C00800063
:040000030000780081
:00000001FF